{
  "_format": "hh-sol-artifact-1",
  "contractName": "CampaignCreator",
  "sourceName": "contracts/ProjectCreator.sol",
  "abi": [
    {
      "inputs": [
        {
          "internalType": "uint256",
          "name": "",
          "type": "uint256"
        }
      ],
      "name": "campaigns",
      "outputs": [
        {
          "internalType": "address",
          "name": "",
          "type": "address"
        }
      ],
      "stateMutability": "view",
      "type": "function"
    },
    {
      "inputs": [
        {
          "internalType": "uint256",
          "name": "minContribution",
          "type": "uint256"
        },
        {
          "internalType": "string",
          "name": "description",
          "type": "string"
        }
      ],
      "name": "createCampaign",
      "outputs": [],
      "stateMutability": "nonpayable",
      "type": "function"
    },
    {
      "inputs": [],
      "name": "getDeployedCampaigns",
      "outputs": [
        {
          "internalType": "address[]",
          "name": "",
          "type": "address[]"
        }
      ],
      "stateMutability": "view",
      "type": "function"
    },
    {
      "inputs": [
        {
          "internalType": "address",
          "name": "wallet",
          "type": "address"
        }
      ],
      "name": "getWalletBalance",
      "outputs": [
        {
          "internalType": "uint256",
          "name": "",
          "type": "uint256"
        }
      ],
      "stateMutability": "view",
      "type": "function"
    }
  ],
  "bytecode": "0x608060405234801561001057600080fd5b506126b6806100206000396000f3fe60806040523480156200001157600080fd5b5060043610620000525760003560e01c8063141961bc14620000575780634220d656146200008d5780634acb9d4f14620000ad578063ed8ec19414620000cf575b600080fd5b6200007560048036038101906200006f9190620002fc565b62000105565b60405162000084919062000373565b60405180910390f35b620000ab6004803603810190620000a59190620004f2565b62000145565b005b620000b7620001ee565b604051620000c6919062000626565b60405180910390f35b620000ed6004803603810190620000e791906200067b565b6200027e565b604051620000fc9190620006be565b60405180910390f35b600081815481106200011657600080fd5b906000526020600020016000915054906101000a900473ffffffffffffffffffffffffffffffffffffffff1681565b600033838360405162000158906200029f565b620001669392919062000764565b604051809103906000f08015801562000183573d6000803e3d6000fd5b5090506000819080600181540180825580915050600190039060005260206000200160009091909190916101000a81548173ffffffffffffffffffffffffffffffffffffffff021916908373ffffffffffffffffffffffffffffffffffffffff160217905550505050565b606060008054806020026020016040519081016040528092919081815260200182805480156200027457602002820191906000526020600020905b8160009054906101000a900473ffffffffffffffffffffffffffffffffffffffff1673ffffffffffffffffffffffffffffffffffffffff168152602001906001019080831162000229575b5050505050905090565b60008173ffffffffffffffffffffffffffffffffffffffff16319050919050565b611ed880620007a983390190565b6000604051905090565b600080fd5b600080fd5b6000819050919050565b620002d681620002c1565b8114620002e257600080fd5b50565b600081359050620002f681620002cb565b92915050565b600060208284031215620003155762000314620002b7565b5b60006200032584828501620002e5565b91505092915050565b600073ffffffffffffffffffffffffffffffffffffffff82169050919050565b60006200035b826200032e565b9050919050565b6200036d816200034e565b82525050565b60006020820190506200038a600083018462000362565b92915050565b600080fd5b600080fd5b6000601f19601f8301169050919050565b7f4e487b7100000000000000000000000000000000000000000000000000000000600052604160045260246000fd5b620003e5826200039a565b810181811067ffffffffffffffff82111715620004075762000406620003ab565b5b80604052505050565b60006200041c620002ad565b90506200042a8282620003da565b919050565b600067ffffffffffffffff8211156200044d576200044c620003ab565b5b62000458826200039a565b9050602081019050919050565b82818337600083830152505050565b60006200048b62000485846200042f565b62000410565b905082815260208101848484011115620004aa57620004a962000395565b5b620004b784828562000465565b509392505050565b600082601f830112620004d757620004d662000390565b5b8135620004e984826020860162000474565b91505092915050565b600080604083850312156200050c576200050b620002b7565b5b60006200051c85828601620002e5565b925050602083013567ffffffffffffffff81111562000540576200053f620002bc565b5b6200054e85828601620004bf565b9150509250929050565b600081519050919050565b600082825260208201905092915050565b6000819050602082019050919050565b6200058f816200034e565b82525050565b6000620005a3838362000584565b60208301905092915050565b6000602082019050919050565b6000620005c98262000558565b620005d5818562000563565b9350620005e28362000574565b8060005b8381101562000619578151620005fd888262000595565b97506200060a83620005af565b925050600181019050620005e6565b5085935050505092915050565b60006020820190508181036000830152620006428184620005bc565b905092915050565b62000655816200034e565b81146200066157600080fd5b50565b60008135905062000675816200064a565b92915050565b600060208284031215620006945762000693620002b7565b5b6000620006a48482850162000664565b91505092915050565b620006b881620002c1565b82525050565b6000602082019050620006d56000830184620006ad565b92915050565b600081519050919050565b600082825260208201905092915050565b60005b8381101562000717578082015181840152602081019050620006fa565b60008484015250505050565b60006200073082620006db565b6200073c8185620006e6565b93506200074e818560208601620006f7565b62000759816200039a565b840191505092915050565b60006060820190506200077b600083018662000362565b6200078a6020830185620006ad565b81810360408301526200079e818462000723565b905094935050505056fe60806040523480156200001157600080fd5b5060405162001ed838038062001ed88339818101604052810190620000379190620002cc565b826000806101000a81548173ffffffffffffffffffffffffffffffffffffffff021916908373ffffffffffffffffffffffffffffffffffffffff1602179055508160018190555080600290816200008f919062000588565b505050506200066f565b6000604051905090565b600080fd5b600080fd5b600073ffffffffffffffffffffffffffffffffffffffff82169050919050565b6000620000da82620000ad565b9050919050565b620000ec81620000cd565b8114620000f857600080fd5b50565b6000815190506200010c81620000e1565b92915050565b6000819050919050565b620001278162000112565b81146200013357600080fd5b50565b60008151905062000147816200011c565b92915050565b600080fd5b600080fd5b6000601f19601f8301169050919050565b7f4e487b7100000000000000000000000000000000000000000000000000000000600052604160045260246000fd5b620001a28262000157565b810181811067ffffffffffffffff82111715620001c457620001c362000168565b5b80604052505050565b6000620001d962000099565b9050620001e7828262000197565b919050565b600067ffffffffffffffff8211156200020a576200020962000168565b5b620002158262000157565b9050602081019050919050565b60005b838110156200024257808201518184015260208101905062000225565b60008484015250505050565b6000620002656200025f84620001ec565b620001cd565b90508281526020810184848401111562000284576200028362000152565b5b6200029184828562000222565b509392505050565b600082601f830112620002b157620002b06200014d565b5b8151620002c38482602086016200024e565b91505092915050565b600080600060608486031215620002e857620002e7620000a3565b5b6000620002f886828701620000fb565b93505060206200030b8682870162000136565b925050604084015167ffffffffffffffff8111156200032f576200032e620000a8565b5b6200033d8682870162000299565b9150509250925092565b600081519050919050565b7f4e487b7100000000000000000000000000000000000000000000000000000000600052602260045260246000fd5b600060028204905060018216806200039a57607f821691505b602082108103620003b057620003af62000352565b5b50919050565b60008190508160005260206000209050919050565b60006020601f8301049050919050565b600082821b905092915050565b6000600883026200041a7fffffffffffffffffffffffffffffffffffffffffffffffffffffffffffffffff82620003db565b620004268683620003db565b95508019841693508086168417925050509392505050565b6000819050919050565b600062000469620004636200045d8462000112565b6200043e565b62000112565b9050919050565b6000819050919050565b620004858362000448565b6200049d620004948262000470565b848454620003e8565b825550505050565b600090565b620004b4620004a5565b620004c18184846200047a565b505050565b5b81811015620004e957620004dd600082620004aa565b600181019050620004c7565b5050565b601f82111562000538576200050281620003b6565b6200050d84620003cb565b810160208510156200051d578190505b620005356200052c85620003cb565b830182620004c6565b50505b505050565b600082821c905092915050565b60006200055d600019846008026200053d565b1980831691505092915050565b60006200057883836200054a565b9150826002028217905092915050565b620005938262000347565b67ffffffffffffffff811115620005af57620005ae62000168565b5b620005bb825462000381565b620005c8828285620004ed565b600060209050601f831160018114620006005760008415620005eb578287015190505b620005f785826200056a565b86555062000667565b601f1984166200061086620003b6565b60005b828110156200063a5784890151825560018201915060208501945060208101905062000613565b868310156200065a578489015162000656601f8916826200054a565b8355505b6001600288020188555050505b505050505050565b611859806200067f6000396000f3fe6080604052600436106100c25760003560e01c8063647c75e21161007f578063937e09b111610059578063937e09b114610250578063c121b1d21461027b578063d7bb99ba146102a6578063d7d1bbdb146102b0576100c2565b8063647c75e2146101aa57806381d12c58146101e75780638a9cfd5514610227576100c2565b806303441006146100c7578063110842cb146100f0578063119f87471461011b5780633410452a146101255780634051ddac14610150578063481c6a751461017f575b600080fd5b3480156100d357600080fd5b506100ee60048036038101906100e99190610cc1565b6102d9565b005b3480156100fc57600080fd5b506101056104c6565b6040516101129190610d7e565b60405180910390f35b610123610554565b005b34801561013157600080fd5b5061013a61055e565b6040516101479190610daf565b60405180910390f35b34801561015c57600080fd5b5061016561056b565b604051610176959493929190610e0b565b60405180910390f35b34801561018b57600080fd5b506101946105b2565b6040516101a19190610e5e565b60405180910390f35b3480156101b657600080fd5b506101d160048036038101906101cc9190610ea5565b6105d6565b6040516101de9190610eed565b60405180910390f35b3480156101f357600080fd5b5061020e60048036038101906102099190610cc1565b6105f6565b60405161021e9493929190610f29565b60405180910390f35b34801561023357600080fd5b5061024e600480360381019061024991906110d6565b6106eb565b005b34801561025c57600080fd5b506102656108b5565b6040516102729190610daf565b60405180910390f35b34801561028757600080fd5b506102906108bb565b60405161029d9190610daf565b60405180910390f35b6102ae6108c1565b005b3480156102bc57600080fd5b506102d760048036038101906102d29190610cc1565b610977565b005b60008054906101000a900473ffffffffffffffffffffffffffffffffffffffff1673ffffffffffffffffffffffffffffffffffffffff163373ffffffffffffffffffffffffffffffffffffffff1614610367576040517f08c379a000000000000000000000000000000000000000000000000000000000815260040161035e906111b7565b60405180910390fd5b60006005828154811061037d5761037c6111d7565b5b906000526020600020906004020190508060020160149054906101000a900460ff16156103df576040517f08c379a00000000000000000000000000000000000000000000000000000000081526004016103d690611252565b60405180910390fd5b60026004546103ee91906112d0565b816003018054905011610436576040517f08c379a000000000000000000000000000000000000000000000000000000000815260040161042d9061134d565b60405180910390fd5b8060020160009054906101000a900473ffffffffffffffffffffffffffffffffffffffff1673ffffffffffffffffffffffffffffffffffffffff166108fc82600101549081150290604051600060405180830381858888f193505050501580156104a4573d6000803e3d6000fd5b5060018160020160146101000a81548160ff0219169083151502179055505050565b600280546104d39061139c565b80601f01602080910402602001604051908101604052809291908181526020018280546104ff9061139c565b801561054c5780601f106105215761010080835404028352916020019161054c565b820191906000526020600020905b81548152906001019060200180831161052f57829003601f168201915b505050505081565b61055c6108c1565b565b6000600580549050905090565b60008060008060006001544760058054905060045460008054906101000a900473ffffffffffffffffffffffffffffffffffffffff16945094509450945094509091929394565b60008054906101000a900473ffffffffffffffffffffffffffffffffffffffff1681565b60036020528060005260406000206000915054906101000a900460ff1681565b6005818154811061060657600080fd5b90600052602060002090600402016000915090508060000180546106299061139c565b80601f01602080910402602001604051908101604052809291908181526020018280546106559061139c565b80156106a25780601f10610677576101008083540402835291602001916106a2565b820191906000526020600020905b81548152906001019060200180831161068557829003601f168201915b5050505050908060010154908060020160009054906101000a900473ffffffffffffffffffffffffffffffffffffffff16908060020160149054906101000a900460ff16905084565b60008054906101000a900473ffffffffffffffffffffffffffffffffffffffff1673ffffffffffffffffffffffffffffffffffffffff163373ffffffffffffffffffffffffffffffffffffffff1614610779576040517f08c379a0000000000000000000000000000000000000000000000000000000008152600401610770906111b7565b60405180910390fd5b610781610b89565b8381600001819052508281602001818152505081816040019073ffffffffffffffffffffffffffffffffffffffff16908173ffffffffffffffffffffffffffffffffffffffff168152505060008160600190151590811515815250506005819080600181540180825580915050600190039060005260206000209060040201600090919091909150600082015181600001908161081e9190611579565b506020820151816001015560408201518160020160006101000a81548173ffffffffffffffffffffffffffffffffffffffff021916908373ffffffffffffffffffffffffffffffffffffffff16021790555060608201518160020160146101000a81548160ff02191690831515021790555060808201518160030190805190602001906108ac929190610bd0565b50505050505050565b60015481565b60045481565b6001543411610905576040517f08c379a00000000000000000000000000000000000000000000000000000000081526004016108fc906116bd565b60405180910390fd5b6001600360003373ffffffffffffffffffffffffffffffffffffffff1673ffffffffffffffffffffffffffffffffffffffff16815260200190815260200160002060006101000a81548160ff02191690831515021790555060046000815480929190610970906116dd565b9190505550565b600360003373ffffffffffffffffffffffffffffffffffffffff1673ffffffffffffffffffffffffffffffffffffffff16815260200190815260200160002060009054906101000a900460ff16610a03576040517f08c379a00000000000000000000000000000000000000000000000000000000081526004016109fa90611797565b60405180910390fd5b600060058281548110610a1957610a186111d7565b5b90600052602060002090600402019050610a338133610adc565b15610a73576040517f08c379a0000000000000000000000000000000000000000000000000000000008152600401610a6a90611803565b60405180910390fd5b80600301339080600181540180825580915050600190039060005260206000200160009091909190916101000a81548173ffffffffffffffffffffffffffffffffffffffff021916908373ffffffffffffffffffffffffffffffffffffffff1602179055505050565b600080600090505b8360030180549050811015610b7d578273ffffffffffffffffffffffffffffffffffffffff16846003018281548110610b2057610b1f6111d7565b5b9060005260206000200160009054906101000a900473ffffffffffffffffffffffffffffffffffffffff1673ffffffffffffffffffffffffffffffffffffffff1603610b70576001915050610b83565b8080600101915050610ae4565b50600090505b92915050565b6040518060a001604052806060815260200160008152602001600073ffffffffffffffffffffffffffffffffffffffff168152602001600015158152602001606081525090565b828054828255906000526020600020908101928215610c49579160200282015b82811115610c485782518260006101000a81548173ffffffffffffffffffffffffffffffffffffffff021916908373ffffffffffffffffffffffffffffffffffffffff16021790555091602001919060010190610bf0565b5b509050610c569190610c5a565b5090565b5b80821115610c73576000816000905550600101610c5b565b5090565b6000604051905090565b600080fd5b600080fd5b6000819050919050565b610c9e81610c8b565b8114610ca957600080fd5b50565b600081359050610cbb81610c95565b92915050565b600060208284031215610cd757610cd6610c81565b5b6000610ce584828501610cac565b91505092915050565b600081519050919050565b600082825260208201905092915050565b60005b83811015610d28578082015181840152602081019050610d0d565b60008484015250505050565b6000601f19601f8301169050919050565b6000610d5082610cee565b610d5a8185610cf9565b9350610d6a818560208601610d0a565b610d7381610d34565b840191505092915050565b60006020820190508181036000830152610d988184610d45565b905092915050565b610da981610c8b565b82525050565b6000602082019050610dc46000830184610da0565b92915050565b600073ffffffffffffffffffffffffffffffffffffffff82169050919050565b6000610df582610dca565b9050919050565b610e0581610dea565b82525050565b600060a082019050610e206000830188610da0565b610e2d6020830187610da0565b610e3a6040830186610da0565b610e476060830185610da0565b610e546080830184610dfc565b9695505050505050565b6000602082019050610e736000830184610dfc565b92915050565b610e8281610dea565b8114610e8d57600080fd5b50565b600081359050610e9f81610e79565b92915050565b600060208284031215610ebb57610eba610c81565b5b6000610ec984828501610e90565b91505092915050565b60008115159050919050565b610ee781610ed2565b82525050565b6000602082019050610f026000830184610ede565b92915050565b6000610f1382610dca565b9050919050565b610f2381610f08565b82525050565b60006080820190508181036000830152610f438187610d45565b9050610f526020830186610da0565b610f5f6040830185610f1a565b610f6c6060830184610ede565b95945050505050565b600080fd5b600080fd5b7f4e487b7100000000000000000000000000000000000000000000000000000000600052604160045260246000fd5b610fb782610d34565b810181811067ffffffffffffffff82111715610fd657610fd5610f7f565b5b80604052505050565b6000610fe9610c77565b9050610ff58282610fae565b919050565b600067ffffffffffffffff82111561101557611014610f7f565b5b61101e82610d34565b9050602081019050919050565b82818337600083830152505050565b600061104d61104884610ffa565b610fdf565b90508281526020810184848401111561106957611068610f7a565b5b61107484828561102b565b509392505050565b600082601f83011261109157611090610f75565b5b81356110a184826020860161103a565b91505092915050565b6110b381610f08565b81146110be57600080fd5b50565b6000813590506110d0816110aa565b92915050565b6000806000606084860312156110ef576110ee610c81565b5b600084013567ffffffffffffffff81111561110d5761110c610c86565b5b6111198682870161107c565b935050602061112a86828701610cac565b925050604061113b868287016110c1565b9150509250925092565b7f4f6e6c79206d616e616765722063616e2063616c6c20746869732066756e637460008201527f696f6e0000000000000000000000000000000000000000000000000000000000602082015250565b60006111a1602383610cf9565b91506111ac82611145565b604082019050919050565b600060208201905081810360008301526111d081611194565b9050919050565b7f4e487b7100000000000000000000000000000000000000000000000000000000600052603260045260246000fd5b7f5265717565737420616c726561647920636f6d706c6574656400000000000000600082015250565b600061123c601983610cf9565b915061124782611206565b602082019050919050565b6000602082019050818103600083015261126b8161122f565b9050919050565b7f4e487b7100000000000000000000000000000000000000000000000000000000600052601260045260246000fd5b7f4e487b7100000000000000000000000000000000000000000000000000000000600052601160045260246000fd5b60006112db82610c8b565b91506112e683610c8b565b9250826112f6576112f5611272565b5b828204905092915050565b7f4e6f7420656e6f75676820617070726f76616c73000000000000000000000000600082015250565b6000611337601483610cf9565b915061134282611301565b602082019050919050565b600060208201905081810360008301526113668161132a565b9050919050565b7f4e487b7100000000000000000000000000000000000000000000000000000000600052602260045260246000fd5b600060028204905060018216806113b457607f821691505b6020821081036113c7576113c661136d565b5b50919050565b60008190508160005260206000209050919050565b60006020601f8301049050919050565b600082821b905092915050565b60006008830261142f7fffffffffffffffffffffffffffffffffffffffffffffffffffffffffffffffff826113f2565b61143986836113f2565b95508019841693508086168417925050509392505050565b6000819050919050565b600061147661147161146c84610c8b565b611451565b610c8b565b9050919050565b6000819050919050565b6114908361145b565b6114a461149c8261147d565b8484546113ff565b825550505050565b600090565b6114b96114ac565b6114c4818484611487565b505050565b5b818110156114e8576114dd6000826114b1565b6001810190506114ca565b5050565b601f82111561152d576114fe816113cd565b611507846113e2565b81016020851015611516578190505b61152a611522856113e2565b8301826114c9565b50505b505050565b600082821c905092915050565b600061155060001984600802611532565b1980831691505092915050565b6000611569838361153f565b9150826002028217905092915050565b61158282610cee565b67ffffffffffffffff81111561159b5761159a610f7f565b5b6115a5825461139c565b6115b08282856114ec565b600060209050601f8311600181146115e357600084156115d1578287015190505b6115db858261155d565b865550611643565b601f1984166115f1866113cd565b60005b82811015611619578489015182556001820191506020850194506020810190506115f4565b868310156116365784890151611632601f89168261153f565b8355505b6001600288020188555050505b505050505050565b7f436f6e747269627574696f6e206d75737420626520677265617465722074686160008201527f6e206d696e696d756d20636f6e747269627574696f6e00000000000000000000602082015250565b60006116a7603683610cf9565b91506116b28261164b565b604082019050919050565b600060208201905081810360008301526116d68161169a565b9050919050565b60006116e882610c8b565b91507fffffffffffffffffffffffffffffffffffffffffffffffffffffffffffffffff820361171a576117196112a1565b5b600182019050919050565b7f4f6e6c7920737570706f72746572732063616e2063616c6c207468697320667560008201527f6e6374696f6e0000000000000000000000000000000000000000000000000000602082015250565b6000611781602683610cf9565b915061178c82611725565b604082019050919050565b600060208201905081810360008301526117b081611774565b9050919050565b7f5265717565737420616c726561647920617070726f7665640000000000000000600082015250565b60006117ed601883610cf9565b91506117f8826117b7565b602082019050919050565b6000602082019050818103600083015261181c816117e0565b905091905056fea264697066735822122037adc710f16d1421774198eb4f2e7380c489bc0a4635464b751f8b1af6fc994864736f6c63430008180033a26469706673582212209700a9f15717ef9360196c3c4af5ba7b4c6e525cbab9066cf6ce5814d253781f64736f6c63430008180033",
  "linkReferences": {},
  "deployedLinkReferences": {}
}